:100000000C9463000C944E020C9480000C948000BD
:100010000C9480000C9480000C9480000C94800060
:100020000C9480000C9480000C9480000C94800050
:100030000C9480000C9480000C9480000C94800040
:100040000C9480000C9480000C9480000C94800030
:100050000C9480000C9480000C9480000C94800020
:100060000C9480000C9480000902120001010080B1
:100070003209040000000000000012011001FF001E
:100080000008C016DC050001010200011C03490044
:1000900044002000360030003100300035003000D0
:1000A00034003600350031001A036300700065002B
:1000B0002E006B0075002E00610063002E0074009E
:1000C00068000403090411241FBECFEFD8E0DEBF8F
:1000D000CDBF11E0A0E0B1E0EEEEF6E002C0059089
:1000E0000D92A230B107D9F721E0A2E0B1E001C042
:1000F0001D92A233B207E1F70E9462030C947503CC
:100100000C940000CF93FC01C181C11105C0628134
:1001100084810E94F9006AC0C13069F489B1869572
:100120008C2781708093060186E091E090931701FF
:10013000809316015BC0C23081F584818230B9F0B2
:1001400040F4882381F0813029F593B19695892771
:100150000CC08430B1F080F08530E1F483B185FBD0
:10016000992790F913C083B18095817011C083B134
:1001700082FB992790F90AC083B183FB992790F9F4
:1001800005C083B18295817091E001C081E089272B
:100190008093050185E091E022C0C33081F4848121
:1001A0000E943001823523E0920710F481E090E054
:1001B000909304018093030183E091E010C0C43068
:1001C000A1F429B181E090E0048002C0880F991F5A
:1001D0000A94E2F782238093020182E091E09093F7
:1001E000170180931601C1E001C0C0E08C2FCF91B0
:1001F000089548B121E030E0662349F0B90102C01A
:10020000660F771F8A95E2F7CB01842B09C0B901ED
:1002100002C0660F771F8A95E2F7CB018095842391
:1002200088B9089598B1987F98B998B18770982B3C
:1002300098B9089587B18A6287B9539A87B18A7E3F
:1002400087B984B1807C84B98AB18C798AB985B147
:100250008F6385B95E9A80E00E9412015B980895D1
:100260008F70806480937C0087EC80937A0080910B
:100270007A0086FDFCCF209178008091790090E093
:10028000982F8827820F911D0895CF93DF93809137
:100290001801835087FD8AC0909114019D3209F0A6
:1002A00083C0883009F080C080911501CCE0D0E097
:1002B000C81BD109C45EDE4F83EC809308018AE538
:1002C00080930101109207018881807621F0CE0190
:1002D0000E94820060C08A8110921101998191115F
:1002E00006C01092120121E131E082E050C0953049
:1002F00019F4809319013DC09630A9F59B81913086
:1003000019F48AE790E004C0923041F488E690E066
:10031000909317018093160182E121C09330F1F48C
:10032000811108C082EC90E0909317018093160130
:1003300084E015C0813041F488EA90E09093170181
:10034000809316018AE10BC0823041F48CE890E082
:1003500090931701809316018CE101C080E090E436
:100360009093070118C0983079F0993031F4809358
:100370001B0121E131E080E00AC081E09A3009F000
:1003800080E021E131E003C02BE131E081E03093F6
:100390001701209316019F81911104C09E81981727
:1003A00008F4892F809300011092180180910101B7
:1003B00084FF47C0809100018F3F09F442C0C82FDD
:1003C000893008F0C8E08C1B8093000190910801EF
:1003D00088E8892780930801CC2331F140911601E8
:1003E000509117018091070186FF0AC0A9E0B1E092
:1003F000FA019C2F84918D9331969150D9F708C0C2
:10040000DA01E9E0F1E09C2F8D9181939150E1F7C1
:100410002FEF2C0F30E02F5F3F4FCA01820F931F49
:1004200090931701809316016C2F89E091E00E9450
:100430004A02CC5FCC3019F08FEF80930001C0935B
:10044000010184E199B1947131F48150D9F710928E
:10045000190110921301DF91CF910895E9E6F0E0C0
:10046000808182608083E89A0895A82FB92F80E068
:1004700090E041E050EA609530E009C02D9182277C
:100480009795879510F084279527305EC8F36F5FA6
:10049000A8F30895EADF8D939D930895CF93CFB786
:1004A000CF93DF93C3954C9BE9F74C9B0BC04C9BC0
:1004B00009C04C9B07C04C9B05C04C9B03C04C9B88
:1004C00001C089C06F93C0911501DD27C45EDE4F66
:1004D0002F9365E54C9B03C02F916F91E6CF0F934F
:1004E0001F934F9320E040E15F9309B1047104FB37
:1004F00027F93F9350E03BE039C0147140642F77F7
:10050000012F5F5F1EC0406819B114712F775250E0
:100510001FC0406409B12F770471D1F15F5F00C043
:1005200023C0406219B12F77147191F15F5F00C051
:1005300025C004711027515012F45D5F0000115066
:1005400027952C3F19B1C8F6147101270150279542
:100550002C3FC8F64227499309B1047110274F7305
:10056000115027952C3FA8F64695469519B1147160
:1005700079F00127015027952C3F98F66B5A60F3CC
:10058000315009B1B0F600C011E01CBB002717C004
:100590003B503195C31BD04011E01CBB0881033C8C
:1005A000F9F00B34E9F0209113011981110F1213A6
:1005B000EDCF093651F10D3211F0013E39F70093BC
:1005C0001A013F915F914F911F910F912F916F9160
:1005D000CCB3C0FD67CFDF91CF91CFBFCF9118953E
:1005E00020911A01222369F310911801112339F582
:1005F00034303AF130931801209314011091150111
:100600003BE0311B309315011CC0009118010130F3
:10061000B4F40AE53091010134FD14C000930101E6
:10062000C8E0D1E013C0052710E000C000000BB9FE
:100630001AC0052710E0221F1DC010E021C04AE5A6
:1006400002C032ED432FC4E1D0E032E01AB11461B0
:100650005C9A0BB11AB954E120E865E320FF052745
:100660000BB9279517951C3FF0F66695B8F7B1F7CB
:1006700020FF05270BB9279517951C3FD0F6279526
:10068000179517FF052700001C3F0BB9B0F62991FD
:100690003A9519F70B7E10911901110FC651D040F0
:1006A0000BB911F01093130111E01CBB00611AB1DA
:1006B0001B7E402F4B7E54E05A95F1F70BB91AB9C7
:1006C0004BB97FCF0E941A010E942E02549A2FEF3D
:1006D00085EA9EE0215080409040E1F700C0000094
:0E06E000549878940E944501FDCFF894FFCF06
:0206EE00FF5AB1
:00000001FF
